:100000000C9470010C948F010C948F010C948F014F
:100010000C948F010C948F010C948F010C948F0120
:100020000C948F010C948F010C948F010C948F0110
:100030000C948F010C948F010C948F010C948F0100
:100040000C948F010C948F010C948F010C948F01F0
:100050000C948F010C947F050C948F010C94730603
:100060000C948F010C948F010C948F010C948F01D0
:100070000C948F010C948F010C948F010C948F01C0
:100080000C948F010C948F010C948F010C948F01B0
:100090000C948F010C948F01E102E7021703170300
:1000A0000503DB02170317031703ED021703F6021C
:1000B0001703020311031703F00217030B031703BF
:1000C000170317031703FF02170317031703170379
:1000D0001703170317031703E402EA0217031703B2
:1000E0000803DE02170317031703FC021703F902C4
:1000F00017030E0317031703F3021703170317035E
:1001000017031403000000000000005F000000035C
:10011000000300143E143E14242A7F2A124333089D
:10012000666136495522500005030000001C22413B
:10013000000041221C0014083E081408083E08086C
:100140000050300000080808080800606000002027
:10015000100804023E5149453E0004027F004261FE
:1001600051494622414949361814127F1027454506
:1001700045393E4949493201017109073649494922
:1001800036264949493E0036360000005636000002
:1001900008142241001414141414004122140802FB
:1001A000015109063E4159555E7E0909097E7F4984
:1001B0004949363E414141227F4141413E7F4949C3
:1001C00049417F090909013E4141493A7F08080830
:1001D0007F00417F4100304040403F7F0814224172
:1001E0007F404040407F020C027F7F0204087F3E38
:1001F0004141413E7F090909061E2121215E7F09F7
:10020000090976264949493201017F01013F4040F1
:10021000403F1F2040201F7F2010207F41221C22B2
:100220004107087008076151494543007F410000BC
:1002300002040810200000417F0004020102044073
:1002400040404040000102040020545454787F4450
:100250004444383844444444384444447F38545433
:10026000541804047E0505085454543C7F080404C3
:100270007800447D40002040443D007F1028440029
:1002800000417F40007C047804787C0804047838BE
:10029000444444387C14141408081414147C007C5E
:1002A000080404485454542004043F44443C40404F
:1002B000207C1C2040201C3C4030403C442810281E
:1002C000440C5050503C4464544C44000836414166
:1002D00000007F00004141360800020102040200D4
:1002E00011241FBECFEFD0E2DEBFCDBF14E0A0E0EF
:1002F000B1E0E2EBF7E200E00BBF02C007900D9225
:10030000A436B107D9F717E0A4E6B4E001C01D9206
:10031000A23AB107E1F70E94B20E0C94D7130C94E5
:1003200000008F929F92AF92BF92CF92DF92EF9296
:10033000FF920F931F93CF93DF93CDB7DEB7A097B4
:100340000FB6F894DEBF0FBECDBF86E0B82EA12C4D
:100350002B2DB98EAA8E9EE8C92E97E0D92EF601D4
:10036000808191810797482F9C8F8B8F6B2DBD8E3D
:10037000AE8E3CE0932E812C9F8E88A200E010E090
:1003800030E05C8D70E0892D90E00E94C00B2B2D39
:10039000B98AAA8AF6016081718167507109462F76
:1003A0007C8B6B8B50E9E52E57E0F52EF7018081B1
:1003B0009181FC013D976E2FFE8BED8B0797988FF7
:1003C0008F8B30E05C897E89988D0E94C00BF6018E
:1003D00080819181AC014D505109242F5A87498762
:1003E0000797482F9C878B876B2DBD86AE86F701BC
:1003F000808191810797988B8F873A855C8570E023
:1004000098890E94C00B2B2DB982AA82492D9B820C
:100410008C826B2DBD82AE82F7018081918107971E
:1004200098878F8330E050E070E098850E94C00B81
:10043000A0960FB6F894DEBF0FBECDBFDF91CF916F
:100440001F910F91FF90EF90DF90CF90BF90AF90F2
:100450009F908F9008950F931F93CF93DF93CDB705
:10046000DEB70F8118852BE533E03F932F930E9471
:10047000020A1F930F930E94020ABE01675F7F4F1B
:10048000C8010E942E110F900F900F900F90DF91D6
:10049000CF911F910F9108959F92AF92BF92CF92EB
:1004A000DF92EF92FF920F931F93CF93DF937C0124
:1004B00029E533E03F932F930E94020A60E070E049
:1004C0008EE997EF0E948E0E2FE533E03F932F9336
:1004D0000E94020A6EE977EF80E090E00E948E0EA3
:1004E0000BE513E01F930F930E94020A60E070E097
:1004F0008EE997EF0E948E0ECDE5D3E0DF93CF9388
:100500000E94020A6FEF7FEF80E090E00E948E0E63
:100510002DE633E03F932F930E94020A60E070E0E3
:100520008EE997EF0E948E0E2AE633E03F932F93D9
:100530000E94020A6EE977EF80E090E00E948E0E42
:100540001F930F930E94020A60E070E08EE997EF1C
:100550000E948E0EDF93CF930E94020A6FEF7FEF0F
:1005600080E090E00E948E0EDF93CF930E94020AFB
:100570008701EDB7FEB772960FB6F894FEBF0FBEB7
:10058000EDBFE12CF12C912C7AE5C72E73E0D72E2C
:10059000F80181918F01992787FD9095A92FB92F97
:1005A000FC01E254F109E633F10508F040C0E45BD8
:1005B000FF4F0C942A0F60E074E03BC062E777E9DC
:1005C00038C06FE170E035C06CEB7EEA32C06FEF8F
:1005D00077E02FC06FEF7FED2CC060E070E029C0A6
:1005E00060E078E826C060E078EF23C06FE178EF44
:1005F00020C06AE97BED1DC065E471EA1AC060EEB7
:100600007FEF17C060E27DEF14C065E57DEA11C0A1
:100610006AE976ED0EC069EF76E40BC064E27DED29
:1006200008C060E67CEF05C06BEB7FEF02C06FEFA8
:100630007FEF80E090E00E948E0E6DE5A62E63E0D5
:10064000B62EDF93CF930E94020A93949FEFE91A8C
:10065000F90A0F900F90E0E4EE16F10409F440C09F
:10066000F7E0F9150CF094CF6FEF7FEF80E090E0AA
:100670000E948E0EDF93CF930E94020A60E070E02A
:100680008EE997EF0E948E0EDF93CF930E94020AAD
:100690006EE977EF80E090E00E948E0EDF92CF92BD
:1006A0000E94020A60E070E08EE997EF0E948E0ED1
:1006B000DF93CF930E94020A6FEF7FEF80E090E01C
:1006C0000E948E0EDF93CF930E94020A8DB79EB7D1
:1006D0000A960FB6F8949EBF0FBE8DBF912C58CFCF
:1006E0006FEF7FEF80E090E00E948E0EBF92AF929E
:1006F0000E94020A60E070E08EE997EF0E948E0E81
:100700000AE613E01F930F930E94020A6EE977EF47
:1007100080E090E00E948E0ECBE5D3E0DF93CF9394
:100720000E94020A60E070E08EE997EF0E948E0E50
:10073000BF92AF920E94020A6FEF7FEF80E090E0DD
:100740000E948E0E8DE693E09F938F930E94020A83
:1007500060E070E08EE997EF0E948E0E1F930F937A
:100760000E94020A6EE977EF80E090E00E948E0E10
:10077000DF93CF930E94020A60E070E08EE997EF6A
:100780000E948E0E8FE593E09F938F930E94020A42
:100790008DB79EB740960FB6F8949EBF0FBE8DBF23
:1007A000DF91CF911F910F91FF90EF90DF90CF904D
:1007B000BF90AF909F9008950F931F93CF93DF93B7
:1007C000CDB7DEB728970FB6F894DEBF0FBECDBF0A
:1007D000109295071092940710929707109296071F
:1007E0003DE050E0232F39835A8380918E0790910A
:1007F0008F070E97482F9C838B83632F3D835E83E7
:1008000080919007909191070E9798878F83009120
:100810009A0710919B0730E05C8170E098850E94F8
:10082000C00B28960FB6F894DEBF0FBECDBFDF9188
:10083000CF911F910F910895BF92CF92DF92EF92C7
:10084000FF920F931F93CF93DF93CDB7DEB7289717
:100850000FB6F894DEBF0FBECDBF0E94DC036EE979
:1008600077EF80E090E00E948E0E88E793E09F9300
:100870008F930E94020A1A82198280918E079091AA
:100880008F070197482F9C838B831E821D82809146
:10089000900790919107019798878F830EE917EF42
:1008A00020E03A815C8160E07E8198850E94C00BE7
:1008B0000F900F9000E010E0B12CEBE5CE2EE3E0BE
:1008C000DE2EFAE7EF2EF3E0FF2E6EE977EF80E001
:1008D00090E00E948E0EDF92CF920E94020A0F904B
:1008E0000F9080917E04B81205C060E070E08EE940
:1008F00097EF04C06EE977EF80E090E00E948E0EE3
:10090000E0910605F0910705E00FF11F83818F93B9
:1009100082818F930E94020AFF92EF920E94020A44
:10092000B394085B1F4F0F900F900F900F9089E0CA
:10093000B812CBCF28960FB6F894DEBF0FBECDBF4E
:10094000DF91CF911F910F91FF90EF90DF90CF90AB
:10095000BF900C949101EF92FF920F931F93CF934E
:10096000DF93CDB7DEB728970FB6F894DEBF0FBE82
:10097000CDBF7C010E94DC036EE977EF80E090E060
:100980000E948E0E1A82198280918E0790918F0795
:100990000197482F9C838B831E821D828091900734
:1009A00090919107019798878F830EE917EF20E0C8
:1009B0003A815C8160E07E8198850E94C00B88E767
:1009C00093E09F938F930E94020A0F900F90809163
:1009D00006059091070528E42E9DF0012F9DF00D4E
:1009E0001124E80FF91F81812AE0E216F10434F4A2
:1009F0008F9380818F938CE793E00FC024E6E216FB
:100A0000F10434F48F9380818F9387E893E005C0DD
:100A10008F9380818F9381E993E09F938F930E94BE
:100A2000020A0F900F900F900F9088E48E9D800126
:100A30008F9D100D1124E0910605F0910705E00F40
:100A4000F11F83818F9382818F938AE993E09F9333
:100A50008F930E94020AE0910605F0910705E00FCE
:100A6000F11F85818F9384818F938EE993E09F930B
:100A70008F930E94020AE0910605F0910705E00FAE
:100A8000F11F87818F9386818F938EEA93E09F93E6
:100A90008F930E94020A8091060590910705800FAE
:100AA000911F08960E944C020FB6F894DEBF0FBE4D
:100AB000CDBF28960FB6F894DEBF0FBECDBFDF9135
:100AC000CF911F910F91FF90EF900C949101E1E66F
:100AD000F0E080E8808310826C9A749A6D9A759A1F
:100AE0006F98779A82E084BD83E085BD8DE787BDEE
:100AF000EEE6F0E08081826080830C94000D1F920E
:100B00000F920FB60F9211240BB60F922F933F93B3
:100B10004F935F936F937F938F939F93AF93BF9305
:100B2000EF93FF939CB194FD02C080E001C083E08D
:100B300095FF02C091E0892790916404981B90FF73
:100B400009C0809364048091800481509270890F61
:100B50008093800480E090E00E94DC05FF91EF919B
:100B6000BF91AF919F918F917F916F915F914F91C5
:100B70003F912F910F900BBE0F900FBE0F901F90C3
:100B80001895F8943CB135FD02C020E001C023E087
:100B900034FF02C031E0232730916804321B30FF5C
:100BA00009C0209368042091800421503270230FE3
:100BB0002093800478940895F8945091830446B16A
:100BC0002CB133B12F67406C24233F6B2323209536
:100BD0002527309167043223309530936704409184
:100BE0006604422343274093660423232423309141
:100BF000830432273093830430918104409183042D
:100C00004223432B40938104209183042C7F19F4C9
:100C10002CE32093650420916504215019F0209362
:100C200065040BC02AE02093650430918204209172
:100C300083042C7F232B20938204789408958DB114
:100C40008F7C8DB98EB180638EB96F98779A87B19A
:100C5000837C87B988B18C6388B926982E9A20E066
:100C600030E042E050E060E070E081EC95E00E940E
:100C7000420720E030E04AE050E060E070E08CEDB8
:100C800095E00C944207F894809180049091800440
:100C9000917090938004789485950895F89490913C
:100CA00081048923909181049827909381047894FA
:100CB0000895F89490918204892390918204982752
:100CC00090938204789408959091830489230895E1
:100CD000F89490918304909589230C944E060E9479
:100CE00059060C944E061F920F920FB60F921124C4
:100CF0000BB60F92CF92DF92EF92FF920F931F935A
:100D00002F933F934F935F936F937F938F939F9313
:100D1000AF93BF93CF93DF93EF93FF93F12C8DE0CD
:100D2000E82EDD24D394CC24CA94CF2DD0E080913A
:100D30000B01992787FD90958C179D070CF474C0C3
:100D4000EC9EF001ED9EF00D1124EC57FB4F458118
:100D500056816781708581819281A381B481481712
:100D600059076A077B0708F44BC0A0916B04B0E0F9
:100D7000A050BF4F8C91F81608F042C080818111BD
:100D80003FC0F894EC9EF001ED9EF00D1124EC575D
:100D9000FB4F1582168217821086D082E0916B0479
:100DA000EF5FE0936B04F0E0E050FF4FF082789447
:100DB000EC9E8001ED9E100D11240C571B4FD801A5
:100DC0001996ED91FC911A971B968D919C911C9709
:100DD0000995F80194878387F894EC9EF001ED9EC5
:100DE000F00D1124EC57FB4F108280916B04E82F1B
:100DF000F0E0E050FF4FC082815080936B04789404
:100E0000EC9EF001ED9EF00D1124EC57FB4F858117
:100E10009681A781B0850196A11DB11D858396831A
:100E2000A783B087F39481CFFF91EF91DF91CF91AA
:100E3000BF91AF919F918F917F916F915F914F91F2
:100E40003F912F911F910F91FF90EF90DF90CF90E6
:100E50000F900BBE0F900FBE0F901F90189583E858
:100E600084BD85B5836085BD81E080936E0016BC2E
:100E70008FEF87BD0895882319F087BD279A0895BD
:100E800027980895EF92FF920F931F93CF93DF93CC
:100E90007C018901C0910B01DD27C7FDD09521960A
:100EA000CA30D10554F5CB01BA010E943D1025E7A7
:100EB00032E04AEF5EE30E94CB1020E030E040E0F9
:100EC0005FE30E94450F0E9411102DE02C9FF0015E
:100ED0002D9FF00D1124EC57FB4F618372838383A8
:100EE000948365837683878390871082F286E18678
:100EF00014870387C0930B0102C0CFEFDFEFCE0151
:100F0000DF91CF911F910F91FF90EF900895CF93B4
:100F1000DF93CDB7DEB7C85CD4400FB6F894DEBF20
:100F20000FBECDBF80E4E0E1F1E0DE01A757BB4F8B
:100F300001900D928A95E1F780E4FE01E757FB4F9F
:100F4000A1E4B2E0AC0FBD1F189601900D928A95F6
:100F5000E1F780E4E1E5F1E0DE01A75BBB4F019042
:100F60000D928A95E1F780E4FE01E75BFB4FA9EF64
:100F7000B1E0AC0FBD1F189601900D928A95E1F774
:100F800080E4E2E9F1E0DE01A75FBB4F01900D9242
:100F90008A95E1F780E4FE01E75FFB4FA1EBB1E04A
:100FA000AC0FBD1F189601900D928A95E1F780E471
:100FB000E3EDF1E0DE01A753BC4F01900D928A955D
:100FC000E1F780E4FE01E753FC4FA9E6B1E0AC0F86
:100FD000BD1F189601900D928A95E1F780E4E4E137
:100FE000F2E0DE01A757BC4F01900D928A95E1F720
:100FF00080E4FE01E757FC4FA1E2B1E0AC0FBD1F5A
:10100000189601900D928A95E1F780E4E5E5F2E00B
:10101000DE01A75BBC4F01900D928A95E1F780E459
:10102000FE01E75BFC4FA9EDB0E0AC0FBD1F1896C9
:1010300001900D928A95E1F780E4E6E9F2E0DE01A5
:10104000A75FBC4F01900D928A95E1F780E4FE0105
:10105000E75FFC4FA1E9B0E0AC0FBD1F189601900F
:101060000D928A95E1F780E4E7EDF2E0DE01A75307
:10107000BD4F01900D928A95E1F780E4FE01E753A0
:10108000FD4FA9E4B0E0AC0FBD1F189601900D9282
:101090008A95E1F780E4E8E1F3E0DE01A757BD4F70
:1010A00001900D928A95E1F780E4FE01E757FD4F2C
:1010B000DE01199601900D928A95E1F781E090E0AA
:1010C000CF5BDD4F99838883C154D2408FEB93E08F
:1010D000CD5BDD4F99838883C354D24089EC93E084
:1010E000CB5BDD4F99838883C554D2408EEC93E06F
:1010F000C95BDD4F99838883C754D24088E4FE01E1
:10110000EF5BFD4FA6E0B5E001900D928A95E1F707
:1011100082E090E0C750DE4F99838883C95FD14059
:1011200082ED93E0C550DE4F99838883CB5FD14039
:101130008AED93E0C350DE4F99838883CD5FD14021
:101140002FED33E0C150DE4F39832883CF5FD1408C
:1011500028E4FE01E750FE4FAEE4B5E001900D92A9
:101160002A95E1F723E030E0CF54DE4F398328831E
:10117000C15BD14024EE33E0CD54DE4F3983288368
:10118000C35BD1402DEE33E0CB54DE4F398328834F
:10119000C55BD14022EF33E0C954DE4F3983288349
:1011A000C75BD14028E4FE01EF54FE4FA6E9B5E04D
:1011B00001900D922A95E1F724E030E0C759DE4F07
:1011C00039832883C956D14028EF33E0C559DE4F13
:1011D00039832883CB56D14023E034E0C359DE4F16
:1011E00039832883CD56D14028E034E0C159DE4F01
:1011F00039832883CF56D14028E4FE01E759FE4FBA
:10120000AEEDB5E001900D922A95E1F725E030E0D2
:10121000CF5DDE4F39832883C152D1402CE034E0CA
:10122000CD5DDE4F39832883C352D14027E134E0BE
:10123000CB5DDE4F39832883C552D1402CE134E0A9
:10124000C95DDE4F39832883C752D14028E4FE01AF
:10125000EF5DFE4FA6E2B6E001900D922A95E1F710
:1012600026E030E0C752DF4F39832883C95DD04084
:1012700021E234E0C552DF4F39832883CB5DD04073
:101280002BE234E0C352DF4F39832883CD5DD04059
:101290002FE234E0C152DF4F39832883CF5DD04045
:1012A00028E4FE01E752FF4FAEE6B6E001900D9252
:1012B0002A95E1F727E030E0CF56DF4F39832883C6
:1012C000C159D04024E334E0CD56DF4F3983288321
:1012D000C359D0402DE334E0CB56DF4F3983288308
:1012E000C559D0402DE134E0C956DF4F39832883FA
:1012F000C759D04028E4FE01EF56FF4FA6EBB6E0F9
:1013000001900D922A95E1F728E030E02B963FAF4F
:101310002EAF2B9722E434E02D963FAF2EAF2D97C2
:101320002F969FAF8EAF2F978CE494E061969FAF7E
:101330008EAF619788E4FE01E75BFF4FAEEFB6E04A
:1013400001900D928A95E1F789E090E09A83898374
:1013500081E594E09C838B838BE594E09E838D8371
:101360008FE594E098878F8388E4FE013196A6E4A8
:10137000B7E001900D928A95E1F786E095E0C853B9
:10138000DB4F0FB6F894DEBF0FBECDBFDF91CF911C
:101390000895E0917C04F0917D049F012F5F3F4F01
:1013A00030937D0420937C04808308958A3034F048
:1013B00090916D04992321F097E303C090E301C05D
:1013C00097E5890F0E94C90981E080936C04089514
:1013D00020916E0430916F0440E02817390720F007
:1013E0004F5F281B390BF9CF30936F0420936E04A5
:1013F00080916C04811102C0442319F0842F0C9455
:10140000D60908958F929F92AF92BF92CF92DF92AA
:10141000EF92FF920F931F93CF93DF9300D0CDB73E
:10142000DEB7FE017196E190F1908F0180E7C82E42
:1014300084E0D82EF7018081882309F4DBC085324F
:1014400031F09FEFE91AF90A0E94A60DF3CFF701D8
:101450002181203329F0F2E0EF0EF11CB12C07C0FE
:10146000F7012281C70103967C01BB24B39480ED70
:10147000820F8A3078F4F701A12C7F0180ED820F72
:101480008A3048F49A2D990F990FA90EAA0CA80E2C
:101490002191F3CFA12CD0927D04C0927C041092B4
:1014A0006C04233609F461C04CF4253209F46CC095
:1014B0002835C1F1222309F49DC069C0233709F4FE
:1014C0005DC01CF4243631F062C0253719F028378E
:1014D00049F15DC0480192E0890E911CF8018081BC
:1014E000918190936F0480936E04243661F497FF8A
:1014F0000AC091958195910990936F0480936E0431
:101500008DE20E94C90980E197E20E94E80988EE15
:1015100093E00E94E80984E690E00E94E8098AE0EE
:1015200090E01BC081E0283509F080E080936D04D5
:101530004801F2E08F0E911CF80180819181909317
:101540006F0480936E0480E090E10E94E80980E0DF
:1015500091E00E94E80980E190E00E94E809809112
:101560006E040E94D609840112C04801F2E08F0E79
:10157000911CF80180810E94C909F5CFF8012081F2
:1015800031810E5F1F4F05C085E20E94C90920E727
:1015900034E0E0917C04F0917D04108230937D046E
:1015A00020937C04F901CF0101964081442329F066
:1015B0001A141CF4AA94FC01F6CF90937D04809336
:1015C0007C041A146CF4BB2011F080E301C080E2AB
:1015D00029833A830E94A60DAA943A812981F1CFEA
:1015E0005901F50181915F01882309F423CF0E94FD
:1015F000A60DF7CF0F900F90DF91CF911F910F9114
:10160000FF90EF90DF90CF90BF90AF909F908F9022
:1016100008950C94A60D93E89093B00091E09093F8
:10162000B1008093B300089590939307809392073D
:1016300026E330E020930040009779F480EF90E0BB
:1016400090938F0780938E0780E491E090939107A9
:101650008093900788E490E034C08130910579F45C
:1016600080E491E090938F0780938E0780EF90E065
:10167000909391078093900788EE90E022C082308B
:10168000910579F480EF90E090938F0780938E0717
:1016900080E491E0909391078093900788E890E030
:1016A00010C0039781F480E491E090938F078093BA
:1016B0008E0780EF90E0909391078093900788E2E7
:1016C00090E0809300418AE290E08093004080E0C7
:1016D00090E0909300418093004180918E0790911B
:1016E0008F07019790930041809300418BE290E037
:1016F0008093004080E090E090930041809300410F
:101700008091900790919107019790930041809369
:1017100000410895CF93873750F4883050F08D33CF
:1017200050F48F3150F4803150F0C2E009C086E7A8
:1017300002C088E004C0C0E003C0C1E001C0C3E053
:1017400021EB30E020930040C0930041682F70E00F
:1017500080E090E00E943F109B01AC0160E070E0EF
:1017600080EF94E40E94A90F0E94111070E002C063
:1017700075956795CA95E2F760930041CF910895FA
:101780000F931F93CF93DF93CDB7DEB728970FB694
:10179000F894DEBF0FBECDBF29833A834B835C83B1
:1017A0006D837E838F83988769817A812B813C81C9
:1017B0004D815E818F819885EAE2F0E0E093004000
:1017C00070930041609300413093004120930041A9
:1017D000EBE2F0E0E0930040509300414093004181
:1017E0009093004180930041ECE2F0E0E0930040F0
:1017F0002F5F3F4F261B370B0196841B950B281735
:10180000390790F4682F6770629FA001639F500DA5
:10181000112473E0969587957A95E1F7829FB00140
:10182000839F700D112411C0622F6770689FA00103
:10183000699F500D112463E0369527956A95E1F76D
:10184000289FB001299F700D1124842F877081502B
:1018500028F01093004100930041F9CFCA0123E022
:10186000969587952A95E1F7860F971F019708F1BE
:1018700010930041009300411093004100930041F8
:1018800010930041009300411093004100930041E8
:1018900010930041009300411093004100930041D8
:1018A00010930041009300411093004100930041C8
:1018B000DDCF28960FB6F894DEBF0FBECDBFDF9107
:1018C000CF911F910F910895EF92FF920F931F9365
:1018D000CF93DF93CDB7DEB728970FB6F894DEBF6E
:1018E0000FBECDBF29833A834B835C836D837E8398
:1018F0008F83988789819A81EB80FC806D817E81BE
:10190000AF81B8852AE230E02093004090930041F7
:1019100080930041F0920041E09200412BE230E0E0
:10192000209300407093004160930041B0930041C8
:10193000A09300412CE230E020930040E816F90625
:10194000A0F0A8019B018A01A217B30760F04E5FC7
:101950005F4FF80100811181109300410093004115
:101960002F5F3F4FF0CF0196E9CF28960FB6F8943E
:10197000DEBF0FBECDBFDF91CF911F910F91FF90C2
:10198000EF9008950F931F93CF93DF93CDB7DEB7FA
:1019900028970FB6F894DEBF0FBECDBF1092950703
:1019A0001092940710929707109296071A82198244
:1019B00080918E0790918F070197482F9C838B838E
:1019C0001E821D82809190079091910701979887C0
:1019D0008F8300919A0710919B0720E03A815C81E8
:1019E00060E07E8198850E94C00B28960FB6F8941F
:1019F000DEBF0FBECDBFDF91CF911F910F91089534
:101A000086E08093750080E8809374003F9A249A62
:101A10008FEC97E00197F1F700C0000047988FE343
:101A20009CE90197F1F700C00000479A9FEF2DEE67
:101A300082E0915020408040E1F700C0000088E241
:101A400090E08093004081E190E0809300409FEF20
:101A500026E781E0915020408040E1F700C000007F
:101A600021E030E08BEC90E0809300402093004137
:101A700080EC90E08093004088E096E290930041F3
:101A80008093004120E130E081EC90E080930040C1
:101A90002093004185EC90E0809300408EE395E335
:101AA000909300418093004125EB30E087EC90E07B
:101AB000809300402093004121E030E086EF90E0E9
:101AC000809300402093004180E090E0909300419B
:101AD0008093004125E530E08AE390E08093004068
:101AE0002093004181E090E00E94140B0E94C20C00
:101AF00010929507109294071092970710929607EC
:101B000010929B0710929A078FEF9FEF909399077F
:101B10008093980789E290E0809300409FE728E354
:101B200081E0915020408040E1F700C0000020E0BB
:101B300030E085E390E08093004020930041EAE6A6
:101B4000F0E08081806280832C9A0895CF92DF92AA
:101B5000EF92FF920F931F93CF93DF93F09194072F
:101B6000E091950720919607309197078A30E1F42C
:101B70001092950710929407285F3F4F3093970774
:101B80002093960780919007909191072817390725
:101B900008F49FC0DF91CF911F910F91FF90EF90BC
:101BA000DF90CF900C94C20C90EE980F9F3508F008
:101BB00090C0B901695F7F4F992787FD9095809705
:101BC000A5E0A89FA001A99F500D11244C5F5E4F76
:101BD0008BE290E0809300403093004120930041DD
:101BE00070930041609300418F2F9E2F8C010C5FFA
:101BF0001F4FEAE2EE2EF12CFCE2CF2ED12C481B37
:101C0000590B0817190750F1E092004090930041DA
:101C1000809300419093004180930041C092004026
:101C2000FA01E80FF91FE491D901F1E06A177B0787
:101C300098F0CF2FCE2329F0C0919807D091990723
:101C400004C0C0919A07D0919B07D0930041C093E4
:101C500000411196FF0FEACF0196D3CF4AE250E040
:101C60004093004090930041809300419093004145
:101C7000809300418CE290E08093004062177307EC
:101C800058F080919A0790919B0790930041809320
:101C900000412F5F3F4FF2CF8091940790919507BD
:101CA0000696909395078093940720918E07309124
:101CB0008F078217930768F0109295071092940788
:101CC0008091960790919707089690939707809335
:101CD0009607DF91CF911F910F91FF90EF90DF90CA
:101CE000CF9008951F93CF93DF93EC0110E0FE0196
:101CF000E10FF11D8081882321F00E94A60D1F5F56
:101D0000F6CFDF91CF911F9108959093950780931F
:101D10009407709397076093960708959093990797
:101D20008093980770939B0760939A0708951F9379
:101D3000CF93DF93EC0170939507609394075093D2
:101D400097074093960710E0FE01E10FF11D808197
:101D5000882321F00E94A60D1F5FF6CFDF91CF915F
:101D60001F9108950E946705789410927E04109246
:101D70007F040E94870790930705809306050E94C1
:101D80001C04CFE7EE24E39409E010E080E80E9411
:101D90006806882391F080917F04813029F40E94A5
:101DA0001C0410927F0409C080917E04992787FD4E
:101DB00090950E94AB04E0927F0480917F04811192
:101DC000E5CFFC2E8FE097E20197F1F700C000000D
:101DD000D0E00E9443069E01280F311D87FD3A95F1
:101DE000C217D3076CF480917E04815087FF02C034
:101DF000875FFCCF80937E040E941C04CFEF13C04A
:101E00002C173D077CF480917E04992787FD9095DF
:101E10000196B8010E94160F80937E040E941C0454
:101E2000C2E001C0C22FFA9469F6B0CF97FB072E2B
:101E300016F4009407D077FD09D00E94300F07FCFC
:101E400005D03EF4909581959F4F089570956195CA
:101E50007F4F0895EE0FFF1F0590F491E02D099438
:101E6000AA1BBB1B51E107C0AA1FBB1FA617B707C0
:101E700010F0A61BB70B881F991F5A95A9F78095DC
:101E80009095BC01CD0108955058BB27AA270ED0CC
:101E900048C139D130F03ED120F031F49F3F11F4E8
:101EA0001EF42EC10EF4E095E7FB24C1E92F4AD1C0
:101EB00080F3BA17620773078407950718F071F467
:101EC0009EF562C10EF4E0950B2EBA2FA02D0B01EA
:101ED000B90190010C01CA01A0011124FF27591B6F
:101EE00099F0593F50F4503E68F11A16F040A22F75
:101EF000232F342F4427585FF3CF469537952795E6
:101F0000A795F0405395C9F77EF41F16BA0B620BE4
:101F1000730B840BBAF09150A1F0FF0FBB1F661F2B
:101F2000771F881FC2F70EC0BA0F621F731F841F6E
:101F300048F4879577956795B795F7959E3F08F094
:101F4000B3CF9395880F08F09927EE0F9795879553
:101F500008950CD0E6C0DED040F0D5D030F021F4AA
:101F60005F3F19F0C7C0511110C1CAC0EBD098F340
:101F70009923C9F35523B1F3951B550BBB27AA270A
:101F800062177307840738F09F5F5F4F220F331F7C
:101F9000441FAA1FA9F333D00E2E3AF0E0E830D048
:101FA00091505040E695001CCAF729D0FE2F27D04B
:101FB000660F771F881FBB1F261737074807AB0719
:101FC000B0E809F0BB0B802DBF01FF2793585F4F8E
:101FD0002AF09E3F510568F08DC0D7C05F3FECF3FB
:101FE000983EDCF3869577956795B795F7959F5F53
:101FF000C9F7880F911D9695879597F90895E1E0A7
:10200000660F771F881FBB1F621773078407BA0705
:1020100020F0621B730B840BBA0BEE1F88F7E09560
:10202000089598D088F09F5790F0B92F9927B7510D
:10203000A0F0D1F0660F771F881F991F1AF0BA958C
:10204000C9F712C0B13081F09FD0B1E008959CC0B3
:10205000672F782F8827B85F39F0B93FCCF3869582
:1020600077956795B395D9F73EF4909580957095DF
:1020700061957F4F8F4F9F4F0895E89409C097FB5C
:102080003EF490958095709561957F4F8F4F9F4F4F
:102090009923A9F0F92F96E9BB279395F695879593
:1020A00077956795B795F111F8CFFAF4BB0F11F456
:1020B00060FF1BC06F5F7F4F8F4F9F4F16C08823FD
:1020C00011F096E911C0772321F09EE8872F762F33
:1020D00005C0662371F096E8862F70E060E02AF074
:1020E0009A95660F771F881FDAF7880F9695879560
:1020F00097F9089597F99F6780E870E060E0089588
:102100009FEF80EC089500240A941616170618060F
:102110000906089500240A941216130614060506EB
:102120000895092E0394000C11F4882352F0BB0F7C
:1021300040F4BF2B11F460FF04C06F5F7F4F8F4FDF
:102140009F4F089557FD9058440F551F59F05F3F1A
:1021500071F04795880F97FB991F61F09F3F79F0C9
:1021600087950895121613061406551FF2CF46954B
:10217000F1DF08C0161617061806991FF1CF8695CD
:102180007105610508940895E894BB2766277727B1
:10219000CB0197F908950BD0C4CFB5DF28F0BADF93
:1021A00018F0952309F0A6CFABCF1124EECFCADFEC
:1021B000A0F3959FD1F3950F50E0551F629FF0015A
:1021C000729FBB27F00DB11D639FAA27F00DB11DB3
:1021D000AA1F649F6627B00DA11D661F829F22273C
:1021E000B00DA11D621F739FB00DA11D621F839FC3
:1021F000A00D611D221F749F3327A00D611D231F99
:10220000849F600D211D822F762F6A2F11249F57E6
:1022100050408AF0E1F088234AF0EE0FFF1FBB1F09
:10222000661F771F881F91505040A9F79E3F5105A8
:1022300070F060CFAACF5F3FECF3983EDCF3869559
:1022400077956795B795F795E7959F5FC1F7FE2B53
:10225000880F911D9695879597F90895AB01BC015C
:1022600080919E0790919F070C9436112F923F9278
:102270004F925F926F927F928F929F92AF92BF9296
:10228000CF92DF92EF92FF920F931F93CF93DF9342
:10229000CDB7DEB72C970FB6F894DEBF0FBECDBF1B
:1022A0007C016B018A01FC0117821682838181FF08
:1022B000BDC1CE0101964C01F7019381F60193FD5A
:1022C000859193FF81916F01882309F4ABC1853219
:1022D00039F493FD859193FF81916F01853229F443
:1022E000B70190E00E944713E7CF512C312C20E03A
:1022F0002032A0F48B3269F030F4803259F083320E
:1023000069F420612CC08D3239F0803339F42160BA
:1023100026C02260246023C0286021C027FD27C07A
:1023200030ED380F3A3078F426FF06C0FAE05F9EB1
:10233000300D1124532E13C08AE0389E300D112425
:10234000332E20620CC08E3221F426FD6BC1206436
:1023500006C08C3611F4206802C0883641F4F601BC
:1023600093FD859193FF81916F018111C1CF982FCA
:102370009F7D9554933028F40C5F1F4FFFE3F98342
:102380000DC0833631F0833771F0833509F05BC0BF
:1023900022C0F801808189830E5F1F4F442443943B
:1023A000512C540115C03801F2E06F0E711CF80178
:1023B000A080B18026FF03C0652D70E002C06FEFE2
:1023C0007FEFC5012C870E943C132C0183012C85D3
:1023D0002F77222E17C03801F2E06F0E711CF80122
:1023E000A080B18026FF03C0652D70E002C06FEFB2
:1023F0007FEFC5012C870E9431132C012C852068AA
:10240000222E830123FC1BC0832D90E04816590621
:10241000B0F4B70180E290E00E9447133A94F4CF01
:10242000F50127FC859127FE81915F01B70190E0BE
:102430000E94471331103A94F1E04F1A51084114A9
:10244000510471F7E5C0843611F0893639F5F80189
:1024500027FF07C060817181828193810C5F1F4FCC
:1024600008C060817181882777FD8095982F0E5F65
:102470001F4F2F76B22E97FF09C0909580957095CB
:1024800061957F4F8F4F9F4F2068B22E2AE030E03A
:10249000A4010E947913A82EA81844C0853729F4F6
:1024A0002F7EB22E2AE030E025C0F22FF97FBF2E1A
:1024B0008F36C1F018F4883579F0B4C0803719F040
:1024C000883721F0AFC02F2F2061B22EB4FE0DC08F
:1024D0008B2D8460B82E09C024FF0AC09F2F966000
:1024E000B92E06C028E030E005C020E130E002C08F
:1024F00020E132E0F801B7FE07C06081718182817E
:1025000093810C5F1F4F06C06081718180E090E075
:102510000E5F1F4FA4010E947913A82EA818FB2D4F
:10252000FF77BF2EB6FE0BC02B2D2E7FA51450F4C7
:10253000B4FE0AC0B2FC08C02B2D2E7E05C07A2C3A
:102540002B2D03C07A2C01C0752C24FF0DC0FE0179
:10255000EA0DF11D8081803311F4297E09C022FF2C
:1025600006C07394739404C0822F867809F0739424
:1025700023FD13C020FF06C05A2C731418F4530C0B
:102580005718732C731468F4B70180E290E02C871D
:102590000E94471373942C85F5CF731410F43718E9
:1025A00001C0312C24FF12C0B70180E390E02C87DA
:1025B0000E9447132C8522FF17C021FF03C088E526
:1025C00090E002C088E790E0B7010CC0822F8678C7
:1025D00059F021FD02C080E201C08BE227FD8DE2AF
:1025E000B70190E00E944713A51438F4B70180E3C7
:1025F00090E00E9447135A94F7CFAA94F401EA0D91
:10260000F11D8081B70190E00E944713A110F5CF22
:10261000332009F451CEB70180E290E00E944713C5
:102620003A94F6CFF7018681978102C08FEF9FEF32
:102630002C960FB6F894DEBF0FBECDBFDF91CF91C1
:102640001F910F91FF90EF90DF90CF90BF90AF90D0
:102650009F908F907F906F905F904F903F902F90C2
:102660000895FC010590615070400110D8F78095E5
:1026700090958E0F9F1F0895FC016150704001904E
:102680000110D8F7809590958E0F9F1F08950F9396
:102690001F93CF93DF93182F092FEB018B8181FDBF
:1026A00003C08FEF9FEF20C082FF10C04E815F817B
:1026B0002C813D81421753077CF4E881F9819F0109
:1026C0002F5F3F4F39832883108306C0E885F98543
:1026D000812F0995892B29F72E813F812F5F3F4F4D
:1026E0003F832E83812F902FDF91CF911F910F91E8
:1026F0000895FA01AA27283051F1203181F1E89498
:102700006F936E7F6E5F7F4F8F4F9F4FAF4FB1E0E4
:102710003ED0B4E03CD0670F781F891F9A1FA11DDF
:10272000680F791F8A1F911DA11D6A0F711D811DE0
:10273000911DA11D20D009F468943F912AE0269FA5
:1027400011243019305D3193DEF6CF010895462F04
:102750004770405D4193B3E00FD0C9F7F6CF462FE5
:102760004F70405D4A3318F0495D31FD405241934E
:1027700002D0A9F7EACFB4E0A6959795879577950B
:102780006795BA95C9F700976105710508959B0192
:10279000AC010A2E06945795479537952795BA951B
:1027A000C9F7620F731F841F951FA01D0895F89429
:0227B000FFCF59
:1027B200FF00000000000000000000FFFF0000001A
:1027C20057574757575757575767474762575762A1
:1027D200576747476262426257674747624B624B9D
:1027E2004343424362626262434342434343575715
:1027F20062434343624343574262624342624343FA
:102802000057576D4D5757575757474D4D4D4757DF
:1028120057474747474743574357626262624343BA
:102822004362626262624B434B6262626262434330
:102832004362425757625742576242575762574262
:10284200570057574D594D575757574D664D664D7F
:102852005757474D4D4D4D4D475462474762475478
:10286200545462626262624B544B626262626254AC
:1028720054546262626262545454576242575762BD
:10288200425700574F4F4F575757574F4F4B4F577E
:102892005757574F4F4F4F4F4F57575757576F4FE6
:1028A2004F57595757506F6F4F574F5757574F4FB3
:1028B2004F4F4F57574F575057575757574F5757D5
:1028C2005057570057577257575757575757724BCA
:1028D20072575757577272727257575752727257CE
:1028E20057575757525272725757575757727272F9
:1028F20072725759577257577257725957577257C0
:102902007257575700575757574F575757574F4FA9
:1029120057574F4B574F63634F574F4F4F5757635D
:102922006350505757574F4F4F4F4F50574F4F4F7E
:102932004F594F4F504F57575759595757574F4F56
:102942004F4F595757005757575757636363575756
:102952005757574B634B575757576B6363635763CD
:10296200636B6B7777575763636B6B6277625763FF
:1029720063636B7777575757575763576257575762
:10298200575763576257005757635757575757421E
:10299200636357575757574B4257575757635742D7
:1029A200426B6B575763635777776B6B576363421F
:1029B2004277776B6363635757577742635757572B
:1029C2005757574257575700574257575757575716
:1029D2004B4257465757575742426B6B66575757AA
:1029E20057776B6B6B5757574242776B6B6B5757E7
:1029F20057577777426B6B575757574242776B421D
:102A02005757574257575757000A0A20202000208D
:102A120020202020202020202020200A00202020EA
:102A220020202020202020000A0A0A002020203016
:102A3200302564203A2000202020302564203A20CE
:102A4200002020202564203A200025730A0020203F
:102A5200204865696768743A2025736D0A00202052
:102A6200205765696768743A2025736B670A0042CC
:102A7200756C62617361757200302E373100362ECB
:102A820039004976797361757200302E3939003117
:102A9200332E300056656E757361757200322E30BA
:102AA20031003130302E3000436861726D616E64E6
:102AB200657200302E363100382E3500436861725F
:102AC2006D656C656F6E00312E30390031392E30F4
:102AD2000043686172697A61726400312E3700398D
:102AE200302E35005371756972746C6500302E3565
:102AF2003100576172746F72746C650032322E3518
:102B020000426C6173746F69736500312E36003850
:042B1200352E350027
:00000001FF
